{
  "_format": "hh-sol-artifact-1",
  "contractName": "RGVERC721",
  "sourceName": "contracts/rgv_erc721.sol",
  "abi": [
    {
      "inputs": [
        {
          "internalType": "string",
          "name": "_name",
          "type": "string"
        },
        {
          "internalType": "string",
          "name": "_symbol",
          "type": "string"
        },
        {
          "internalType": "string",
          "name": "_initBaseURI",
          "type": "string"
        },
        {
          "internalType": "string",
          "name": "_initNotRevealedUri",
          "type": "string"
        },
        {
          "internalType": "uint256",
          "name": "_initCost",
          "type": "uint256"
        },
        {
          "internalType": "uint256",
          "name": "_maxSupply",
          "type": "uint256"
        },
        {
          "internalType": "uint256",
          "name": "_initMintCount",
          "type": "uint256"
        }
      ],
      "stateMutability": "nonpayable",
      "type": "constructor"
    },
    {
      "anonymous": false,
      "inputs": [
        {
          "indexed": true,
          "internalType": "address",
          "name": "owner",
          "type": "address"
        },
        {
          "indexed": true,
          "internalType": "address",
          "name": "approved",
          "type": "address"
        },
        {
          "indexed": true,
          "internalType": "uint256",
          "name": "tokenId",
          "type": "uint256"
        }
      ],
      "name": "Approval",
      "type": "event"
    },
    {
      "anonymous": false,
      "inputs": [
        {
          "indexed": true,
          "internalType": "address",
          "name": "owner",
          "type": "address"
        },
        {
          "indexed": true,
          "internalType": "address",
          "name": "operator",
          "type": "address"
        },
        {
          "indexed": false,
          "internalType": "bool",
          "name": "approved",
          "type": "bool"
        }
      ],
      "name": "ApprovalForAll",
      "type": "event"
    },
    {
      "anonymous": false,
      "inputs": [
        {
          "indexed": true,
          "internalType": "address",
          "name": "previousOwner",
          "type": "address"
        },
        {
          "indexed": true,
          "internalType": "address",
          "name": "newOwner",
          "type": "address"
        }
      ],
      "name": "OwnershipTransferred",
      "type": "event"
    },
    {
      "anonymous": false,
      "inputs": [
        {
          "indexed": true,
          "internalType": "address",
          "name": "from",
          "type": "address"
        },
        {
          "indexed": true,
          "internalType": "address",
          "name": "to",
          "type": "address"
        },
        {
          "indexed": true,
          "internalType": "uint256",
          "name": "tokenId",
          "type": "uint256"
        }
      ],
      "name": "Transfer",
      "type": "event"
    },
    {
      "inputs": [
        {
          "internalType": "address",
          "name": "to",
          "type": "address"
        },
        {
          "internalType": "uint256",
          "name": "tokenId",
          "type": "uint256"
        }
      ],
      "name": "approve",
      "outputs": [],
      "stateMutability": "nonpayable",
      "type": "function"
    },
    {
      "inputs": [
        {
          "internalType": "address",
          "name": "owner",
          "type": "address"
        }
      ],
      "name": "balanceOf",
      "outputs": [
        {
          "internalType": "uint256",
          "name": "",
          "type": "uint256"
        }
      ],
      "stateMutability": "view",
      "type": "function"
    },
    {
      "inputs": [],
      "name": "baseExtension",
      "outputs": [
        {
          "internalType": "string",
          "name": "",
          "type": "string"
        }
      ],
      "stateMutability": "view",
      "type": "function"
    },
    {
      "inputs": [],
      "name": "cost",
      "outputs": [
        {
          "internalType": "uint256",
          "name": "",
          "type": "uint256"
        }
      ],
      "stateMutability": "view",
      "type": "function"
    },
    {
      "inputs": [
        {
          "internalType": "uint256",
          "name": "tokenId",
          "type": "uint256"
        }
      ],
      "name": "getApproved",
      "outputs": [
        {
          "internalType": "address",
          "name": "",
          "type": "address"
        }
      ],
      "stateMutability": "view",
      "type": "function"
    },
    {
      "inputs": [
        {
          "internalType": "address",
          "name": "owner",
          "type": "address"
        },
        {
          "internalType": "address",
          "name": "operator",
          "type": "address"
        }
      ],
      "name": "isApprovedForAll",
      "outputs": [
        {
          "internalType": "bool",
          "name": "",
          "type": "bool"
        }
      ],
      "stateMutability": "view",
      "type": "function"
    },
    {
      "inputs": [],
      "name": "maxSupply",
      "outputs": [
        {
          "internalType": "uint256",
          "name": "",
          "type": "uint256"
        }
      ],
      "stateMutability": "view",
      "type": "function"
    },
    {
      "inputs": [
        {
          "internalType": "uint256",
          "name": "_mintAmount",
          "type": "uint256"
        }
      ],
      "name": "mint",
      "outputs": [],
      "stateMutability": "payable",
      "type": "function"
    },
    {
      "inputs": [],
      "name": "name",
      "outputs": [
        {
          "internalType": "string",
          "name": "",
          "type": "string"
        }
      ],
      "stateMutability": "view",
      "type": "function"
    },
    {
      "inputs": [],
      "name": "notRevealedUri",
      "outputs": [
        {
          "internalType": "string",
          "name": "",
          "type": "string"
        }
      ],
      "stateMutability": "view",
      "type": "function"
    },
    {
      "inputs": [],
      "name": "owner",
      "outputs": [
        {
          "internalType": "address",
          "name": "",
          "type": "address"
        }
      ],
      "stateMutability": "view",
      "type": "function"
    },
    {
      "inputs": [
        {
          "internalType": "uint256",
          "name": "tokenId",
          "type": "uint256"
        }
      ],
      "name": "ownerOf",
      "outputs": [
        {
          "internalType": "address",
          "name": "",
          "type": "address"
        }
      ],
      "stateMutability": "view",
      "type": "function"
    },
    {
      "inputs": [
        {
          "internalType": "bool",
          "name": "_state",
          "type": "bool"
        }
      ],
      "name": "pause",
      "outputs": [],
      "stateMutability": "nonpayable",
      "type": "function"
    },
    {
      "inputs": [],
      "name": "paused",
      "outputs": [
        {
          "internalType": "bool",
          "name": "",
          "type": "bool"
        }
      ],
      "stateMutability": "view",
      "type": "function"
    },
    {
      "inputs": [],
      "name": "renounceOwnership",
      "outputs": [],
      "stateMutability": "nonpayable",
      "type": "function"
    },
    {
      "inputs": [
        {
          "internalType": "bool",
          "name": "_state",
          "type": "bool"
        }
      ],
      "name": "reveal",
      "outputs": [],
      "stateMutability": "nonpayable",
      "type": "function"
    },
    {
      "inputs": [],
      "name": "revealed",
      "outputs": [
        {
          "internalType": "bool",
          "name": "",
          "type": "bool"
        }
      ],
      "stateMutability": "view",
      "type": "function"
    },
    {
      "inputs": [
        {
          "internalType": "address",
          "name": "from",
          "type": "address"
        },
        {
          "internalType": "address",
          "name": "to",
          "type": "address"
        },
        {
          "internalType": "uint256",
          "name": "tokenId",
          "type": "uint256"
        }
      ],
      "name": "safeTransferFrom",
      "outputs": [],
      "stateMutability": "nonpayable",
      "type": "function"
    },
    {
      "inputs": [
        {
          "internalType": "address",
          "name": "from",
          "type": "address"
        },
        {
          "internalType": "address",
          "name": "to",
          "type": "address"
        },
        {
          "internalType": "uint256",
          "name": "tokenId",
          "type": "uint256"
        },
        {
          "internalType": "bytes",
          "name": "_data",
          "type": "bytes"
        }
      ],
      "name": "safeTransferFrom",
      "outputs": [],
      "stateMutability": "nonpayable",
      "type": "function"
    },
    {
      "inputs": [
        {
          "internalType": "address",
          "name": "operator",
          "type": "address"
        },
        {
          "internalType": "bool",
          "name": "approved",
          "type": "bool"
        }
      ],
      "name": "setApprovalForAll",
      "outputs": [],
      "stateMutability": "nonpayable",
      "type": "function"
    },
    {
      "inputs": [
        {
          "internalType": "string",
          "name": "_newBaseExtension",
          "type": "string"
        }
      ],
      "name": "setBaseExtension",
      "outputs": [],
      "stateMutability": "nonpayable",
      "type": "function"
    },
    {
      "inputs": [
        {
          "internalType": "string",
          "name": "_newBaseURI",
          "type": "string"
        }
      ],
      "name": "setBaseURI",
      "outputs": [],
      "stateMutability": "nonpayable",
      "type": "function"
    },
    {
      "inputs": [
        {
          "internalType": "uint256",
          "name": "_newCost",
          "type": "uint256"
        }
      ],
      "name": "setCost",
      "outputs": [],
      "stateMutability": "nonpayable",
      "type": "function"
    },
    {
      "inputs": [
        {
          "internalType": "string",
          "name": "_notRevealedURI",
          "type": "string"
        }
      ],
      "name": "setNotRevealedURI",
      "outputs": [],
      "stateMutability": "nonpayable",
      "type": "function"
    },
    {
      "inputs": [
        {
          "internalType": "bytes4",
          "name": "interfaceId",
          "type": "bytes4"
        }
      ],
      "name": "supportsInterface",
      "outputs": [
        {
          "internalType": "bool",
          "name": "",
          "type": "bool"
        }
      ],
      "stateMutability": "view",
      "type": "function"
    },
    {
      "inputs": [],
      "name": "symbol",
      "outputs": [
        {
          "internalType": "string",
          "name": "",
          "type": "string"
        }
      ],
      "stateMutability": "view",
      "type": "function"
    },
    {
      "inputs": [
        {
          "internalType": "uint256",
          "name": "index",
          "type": "uint256"
        }
      ],
      "name": "tokenByIndex",
      "outputs": [
        {
          "internalType": "uint256",
          "name": "",
          "type": "uint256"
        }
      ],
      "stateMutability": "view",
      "type": "function"
    },
    {
      "inputs": [
        {
          "internalType": "address",
          "name": "owner",
          "type": "address"
        },
        {
          "internalType": "uint256",
          "name": "index",
          "type": "uint256"
        }
      ],
      "name": "tokenOfOwnerByIndex",
      "outputs": [
        {
          "internalType": "uint256",
          "name": "",
          "type": "uint256"
        }
      ],
      "stateMutability": "view",
      "type": "function"
    },
    {
      "inputs": [
        {
          "internalType": "uint256",
          "name": "tokenId",
          "type": "uint256"
        }
      ],
      "name": "tokenURI",
      "outputs": [
        {
          "internalType": "string",
          "name": "",
          "type": "string"
        }
      ],
      "stateMutability": "view",
      "type": "function"
    },
    {
      "inputs": [],
      "name": "totalSupply",
      "outputs": [
        {
          "internalType": "uint256",
          "name": "",
          "type": "uint256"
        }
      ],
      "stateMutability": "view",
      "type": "function"
    },
    {
      "inputs": [
        {
          "internalType": "address",
          "name": "from",
          "type": "address"
        },
        {
          "internalType": "address",
          "name": "to",
          "type": "address"
        },
        {
          "internalType": "uint256",
          "name": "tokenId",
          "type": "uint256"
        }
      ],
      "name": "transferFrom",
      "outputs": [],
      "stateMutability": "nonpayable",
      "type": "function"
    },
    {
      "inputs": [
        {
          "internalType": "address",
          "name": "newOwner",
          "type": "address"
        }
      ],
      "name": "transferOwnership",
      "outputs": [],
      "stateMutability": "nonpayable",
      "type": "function"
    },
    {
      "inputs": [
        {
          "internalType": "address",
          "name": "_owner",
          "type": "address"
        }
      ],
      "name": "walletOfOwner",
      "outputs": [
        {
          "internalType": "uint256[]",
          "name": "",
          "type": "uint256[]"
        }
      ],
      "stateMutability": "view",
      "type": "function"
    },
    {
      "inputs": [],
      "name": "withdraw",
      "outputs": [],
      "stateMutability": "payable",
      "type": "function"
    }
  ],
  "bytecode": "0x60c06040526005608081905264173539b7b760d91b60a09081526200002891600c919062000a51565b50600f805461ffff191690553480156200004157600080fd5b506040516200376538038062003765833981016040819052620000649162000bd1565b8651879087906200007d90600090602085019062000a51565b5080516200009390600190602084019062000a51565b505050620000b0620000aa620000ef60201b60201c565b620000f3565b600d839055600e829055620000c58562000145565b620000d084620001ad565b8015620000e257620000e2816200020d565b5050505050505062000e24565b3390565b600a80546001600160a01b038381166001600160a01b0319831681179093556040519116919082907f8be0079c531659141344cd1fd0a4f28419497f9722a3daafe3b4186f6b6457e090600090a35050565b600a546001600160a01b03163314620001945760405162461bcd60e51b815260206004820181905260248201526000805160206200374583398151915260448201526064015b60405180910390fd5b8051620001a990600b90602084019062000a51565b5050565b600a546001600160a01b03163314620001f85760405162461bcd60e51b815260206004820181905260248201526000805160206200374583398151915260448201526064016200018b565b8051620001a990601090602084019062000a51565b60006200021960085490565b600f5490915060ff1615620002655760405162461bcd60e51b8152602060048201526011602482015270135a5b9d1a5b99c81a5cc81c185d5cd959607a1b60448201526064016200018b565b60008211620002c25760405162461bcd60e51b815260206004820152602260248201527f4d696e7420616d6f756e74206d7573742062652067726561746572207468616e604482015261020360f41b60648201526084016200018b565b600e54620002d1838362000cbd565b1115620003215760405162461bcd60e51b815260206004820152601e60248201527f4d696e7420616d6f756e742065786365656473206d617820737570706c79000060448201526064016200018b565b600a546001600160a01b03163314620003955781600d5462000344919062000cd8565b341015620003955760405162461bcd60e51b815260206004820152601a60248201527f4d696e7420616d6f756e74206c657373207468616e20636f737400000000000060448201526064016200018b565b60015b828111620003cc57620003b733620003b1838562000cbd565b620003d1565b80620003c38162000cfa565b91505062000398565b505050565b620001a9828260405180602001604052806000815250620003f360201b60201c565b620003ff838362000466565b6200040e6000848484620005bc565b620003cc5760405162461bcd60e51b815260206004820152603260248201526000805160206200372583398151915260448201527131b2b4bb32b91034b6b83632b6b2b73a32b960711b60648201526084016200018b565b6001600160a01b038216620004be5760405162461bcd60e51b815260206004820181905260248201527f4552433732313a206d696e7420746f20746865207a65726f206164647265737360448201526064016200018b565b6000818152600260205260409020546001600160a01b031615620005255760405162461bcd60e51b815260206004820152601c60248201527f4552433732313a20746f6b656e20616c7265616479206d696e7465640000000060448201526064016200018b565b620005336000838362000725565b6001600160a01b03821660009081526003602052604081208054600192906200055e90849062000cbd565b909155505060008181526002602052604080822080546001600160a01b0319166001600160a01b03861690811790915590518392907fddf252ad1be2c89b69c2b068fc378daa952ba7f163c4a11628f55a4df523b3ef908290a45050565b6000620005dd846001600160a01b03166200080160201b620015ef1760201c565b156200071957604051630a85bd0160e11b81526001600160a01b0385169063150b7a02906200061790339089908890889060040162000d18565b602060405180830381600087803b1580156200063257600080fd5b505af192505050801562000665575060408051601f3d908101601f19168201909252620006629181019062000d6e565b60015b620006fe573d80801562000696576040519150601f19603f3d011682016040523d82523d6000602084013e6200069b565b606091505b508051620006f65760405162461bcd60e51b815260206004820152603260248201526000805160206200372583398151915260448201527131b2b4bb32b91034b6b83632b6b2b73a32b960711b60648201526084016200018b565b805181602001fd5b6001600160e01b031916630a85bd0160e11b1490506200071d565b5060015b949350505050565b6200073d838383620003cc60201b620009f21760201c565b6001600160a01b0383166200079b576200079581600880546000838152600960205260408120829055600182018355919091527ff3f7a9fe364faab93b216da50a3214154f22a0a2b415b23a84c8169e8b636ee30155565b620007c1565b816001600160a01b0316836001600160a01b031614620007c157620007c1838262000810565b6001600160a01b038216620007db57620003cc81620008bd565b826001600160a01b0316826001600160a01b031614620003cc57620003cc828262000977565b6001600160a01b03163b151590565b600060016200082a84620009c860201b62000eb01760201c565b62000836919062000da1565b6000838152600760205260409020549091508082146200088a576001600160a01b03841660009081526006602090815260408083208584528252808320548484528184208190558352600790915290208190555b5060009182526007602090815260408084208490556001600160a01b039094168352600681528383209183525290812055565b600854600090620008d19060019062000da1565b60008381526009602052604081205460088054939450909284908110620008fc57620008fc62000dbb565b90600052602060002001549050806008838154811062000920576200092062000dbb565b60009182526020808320909101929092558281526009909152604080822084905585825281205560088054806200095b576200095b62000dd1565b6001900381819060005260206000200160009055905550505050565b60006200098f83620009c860201b62000eb01760201c565b6001600160a01b039093166000908152600660209081526040808320868452825280832085905593825260079052919091209190915550565b60006001600160a01b03821662000a355760405162461bcd60e51b815260206004820152602a60248201527f4552433732313a2062616c616e636520717565727920666f7220746865207a65604482015269726f206164647265737360b01b60648201526084016200018b565b506001600160a01b031660009081526003602052604090205490565b82805462000a5f9062000de7565b90600052602060002090601f01602090048101928262000a83576000855562000ace565b82601f1062000a9e57805160ff191683800117855562000ace565b8280016001018555821562000ace579182015b8281111562000ace57825182559160200191906001019062000ab1565b5062000adc92915062000ae0565b5090565b5b8082111562000adc576000815560010162000ae1565b634e487b7160e01b600052604160045260246000fd5b60005b8381101562000b2a57818101518382015260200162000b10565b8381111562000b3a576000848401525b50505050565b600082601f83011262000b5257600080fd5b81516001600160401b038082111562000b6f5762000b6f62000af7565b604051601f8301601f19908116603f0116810190828211818310171562000b9a5762000b9a62000af7565b8160405283815286602085880101111562000bb457600080fd5b62000bc784602083016020890162000b0d565b9695505050505050565b600080600080600080600060e0888a03121562000bed57600080fd5b87516001600160401b038082111562000c0557600080fd5b62000c138b838c0162000b40565b985060208a015191508082111562000c2a57600080fd5b62000c388b838c0162000b40565b975060408a015191508082111562000c4f57600080fd5b62000c5d8b838c0162000b40565b965060608a015191508082111562000c7457600080fd5b5062000c838a828b0162000b40565b9450506080880151925060a0880151915060c0880151905092959891949750929550565b634e487b7160e01b600052601160045260246000fd5b6000821982111562000cd35762000cd362000ca7565b500190565b600081600019048311821515161562000cf55762000cf562000ca7565b500290565b600060001982141562000d115762000d1162000ca7565b5060010190565b600060018060a01b03808716835280861660208401525083604083015260806060830152825180608084015262000d578160a085016020870162000b0d565b601f01601f19169190910160a00195945050505050565b60006020828403121562000d8157600080fd5b81516001600160e01b03198116811462000d9a57600080fd5b9392505050565b60008282101562000db65762000db662000ca7565b500390565b634e487b7160e01b600052603260045260246000fd5b634e487b7160e01b600052603160045260246000fd5b600181811c9082168062000dfc57607f821691505b6020821081141562000e1e57634e487b7160e01b600052602260045260246000fd5b50919050565b6128f18062000e346000396000f3fe6080604052600436106102195760003560e01c80635c975abb1161011d578063a22cb465116100b0578063d5abeb011161007f578063e985e9c511610064578063e985e9c5146105d1578063f2c4ce1e1461061a578063f2fde38b1461063a57600080fd5b8063d5abeb011461059b578063da3ef23f146105b157600080fd5b8063a22cb46514610526578063b88d4fde14610546578063c668286214610566578063c87b56dd1461057b57600080fd5b80638da5cb5b116100ec5780638da5cb5b146104c0578063940cd05b146104de57806395d89b41146104fe578063a0712d681461051357600080fd5b80635c975abb146104515780636352211e1461046b57806370a082311461048b578063715018a6146104ab57600080fd5b806323b872dd116101b0578063438b63001161017f5780634f6ccce7116101645780634f6ccce7146103f2578063518302271461041257806355f804b31461043157600080fd5b8063438b6300146103a557806344a0d68a146103d257600080fd5b806323b872dd1461033d5780632f745c591461035d5780633ccfd60b1461037d57806342842e0e1461038557600080fd5b8063081c8c44116101ec578063081c8c44146102cf578063095ea7b3146102e457806313faede61461030457806318160ddd1461032857600080fd5b806301ffc9a71461021e57806302329a291461025357806306fdde0314610275578063081812fc14610297575b600080fd5b34801561022a57600080fd5b5061023e61023936600461231f565b61065a565b60405190151581526020015b60405180910390f35b34801561025f57600080fd5b5061027361026e366004612351565b61069e565b005b34801561028157600080fd5b5061028a610710565b60405161024a91906123c4565b3480156102a357600080fd5b506102b76102b23660046123d7565b6107a2565b6040516001600160a01b03909116815260200161024a565b3480156102db57600080fd5b5061028a610837565b3480156102f057600080fd5b506102736102ff366004612407565b6108c5565b34801561031057600080fd5b5061031a600d5481565b60405190815260200161024a565b34801561033457600080fd5b5060085461031a565b34801561034957600080fd5b50610273610358366004612431565b6109f7565b34801561036957600080fd5b5061031a610378366004612407565b610a7e565b610273610b26565b34801561039157600080fd5b506102736103a0366004612431565b610bf4565b3480156103b157600080fd5b506103c56103c036600461246d565b610c0f565b60405161024a9190612488565b3480156103de57600080fd5b506102736103ed3660046123d7565b610cb1565b3480156103fe57600080fd5b5061031a61040d3660046123d7565b610d10565b34801561041e57600080fd5b50600f5461023e90610100900460ff1681565b34801561043d57600080fd5b5061027361044c366004612558565b610db4565b34801561045d57600080fd5b50600f5461023e9060ff1681565b34801561047757600080fd5b506102b76104863660046123d7565b610e25565b34801561049757600080fd5b5061031a6104a636600461246d565b610eb0565b3480156104b757600080fd5b50610273610f4a565b3480156104cc57600080fd5b50600a546001600160a01b03166102b7565b3480156104ea57600080fd5b506102736104f9366004612351565b610fb0565b34801561050a57600080fd5b5061028a611024565b6102736105213660046123d7565b611033565b34801561053257600080fd5b506102736105413660046125a1565b611203565b34801561055257600080fd5b506102736105613660046125d4565b61120e565b34801561057257600080fd5b5061028a61129c565b34801561058757600080fd5b5061028a6105963660046123d7565b6112a9565b3480156105a757600080fd5b5061031a600e5481565b3480156105bd57600080fd5b506102736105cc366004612558565b611436565b3480156105dd57600080fd5b5061023e6105ec366004612650565b6001600160a01b03918216600090815260056020908152604080832093909416825291909152205460ff1690565b34801561062657600080fd5b50610273610635366004612558565b6114a3565b34801561064657600080fd5b5061027361065536600461246d565b611510565b60006001600160e01b031982167f780e9d630000000000000000000000000000000000000000000000000000000014806106985750610698826115fe565b92915050565b600a546001600160a01b031633146106fd5760405162461bcd60e51b815260206004820181905260248201527f4f776e61626c653a2063616c6c6572206973206e6f7420746865206f776e657260448201526064015b60405180910390fd5b600f805460ff1916911515919091179055565b60606000805461071f9061267a565b80601f016020809104026020016040519081016040528092919081815260200182805461074b9061267a565b80156107985780601f1061076d57610100808354040283529160200191610798565b820191906000526020600020905b81548152906001019060200180831161077b57829003601f168201915b5050505050905090565b6000818152600260205260408120546001600160a01b031661081b5760405162461bcd60e51b815260206004820152602c60248201527f4552433732313a20617070726f76656420717565727920666f72206e6f6e657860448201526b34b9ba32b73a103a37b5b2b760a11b60648201526084016106f4565b506000908152600460205260409020546001600160a01b031690565b601080546108449061267a565b80601f01602080910402602001604051908101604052809291908181526020018280546108709061267a565b80156108bd5780601f10610892576101008083540402835291602001916108bd565b820191906000526020600020905b8154815290600101906020018083116108a057829003601f168201915b505050505081565b60006108d082610e25565b9050806001600160a01b0316836001600160a01b0316141561095a5760405162461bcd60e51b815260206004820152602160248201527f4552433732313a20617070726f76616c20746f2063757272656e74206f776e6560448201527f720000000000000000000000000000000000000000000000000000000000000060648201526084016106f4565b336001600160a01b0382161480610976575061097681336105ec565b6109e85760405162461bcd60e51b815260206004820152603860248201527f4552433732313a20617070726f76652063616c6c6572206973206e6f74206f7760448201527f6e6572206e6f7220617070726f76656420666f7220616c6c000000000000000060648201526084016106f4565b6109f28383611699565b505050565b610a013382611714565b610a735760405162461bcd60e51b815260206004820152603160248201527f4552433732313a207472616e736665722063616c6c6572206973206e6f74206f60448201527f776e6572206e6f7220617070726f76656400000000000000000000000000000060648201526084016106f4565b6109f283838361180b565b6000610a8983610eb0565b8210610afd5760405162461bcd60e51b815260206004820152602b60248201527f455243373231456e756d657261626c653a206f776e657220696e646578206f7560448201527f74206f6620626f756e647300000000000000000000000000000000000000000060648201526084016106f4565b506001600160a01b03919091166000908152600660209081526040808320938352929052205490565b600a546001600160a01b03163314610b805760405162461bcd60e51b815260206004820181905260248201527f4f776e61626c653a2063616c6c6572206973206e6f7420746865206f776e657260448201526064016106f4565b6000610b94600a546001600160a01b031690565b6001600160a01b03164760405160006040518083038185875af1925050503d8060008114610bde576040519150601f19603f3d011682016040523d82523d6000602084013e610be3565b606091505b5050905080610bf157600080fd5b50565b6109f28383836040518060200160405280600081525061120e565b60606000610c1c83610eb0565b905060008167ffffffffffffffff811115610c3957610c396124cc565b604051908082528060200260200182016040528015610c62578160200160208202803683370190505b50905060005b82811015610ca957610c7a8582610a7e565b828281518110610c8c57610c8c6126b5565b602090810291909101015280610ca1816126e1565b915050610c68565b509392505050565b600a546001600160a01b03163314610d0b5760405162461bcd60e51b815260206004820181905260248201527f4f776e61626c653a2063616c6c6572206973206e6f7420746865206f776e657260448201526064016106f4565b600d55565b6000610d1b60085490565b8210610d8f5760405162461bcd60e51b815260206004820152602c60248201527f455243373231456e756d657261626c653a20676c6f62616c20696e646578206f60448201527f7574206f6620626f756e6473000000000000000000000000000000000000000060648201526084016106f4565b60088281548110610da257610da26126b5565b90600052602060002001549050919050565b600a546001600160a01b03163314610e0e5760405162461bcd60e51b815260206004820181905260248201527f4f776e61626c653a2063616c6c6572206973206e6f7420746865206f776e657260448201526064016106f4565b8051610e2190600b906020840190612270565b5050565b6000818152600260205260408120546001600160a01b0316806106985760405162461bcd60e51b815260206004820152602960248201527f4552433732313a206f776e657220717565727920666f72206e6f6e657869737460448201527f656e7420746f6b656e000000000000000000000000000000000000000000000060648201526084016106f4565b60006001600160a01b038216610f2e5760405162461bcd60e51b815260206004820152602a60248201527f4552433732313a2062616c616e636520717565727920666f7220746865207a6560448201527f726f20616464726573730000000000000000000000000000000000000000000060648201526084016106f4565b506001600160a01b031660009081526003602052604090205490565b600a546001600160a01b03163314610fa45760405162461bcd60e51b815260206004820181905260248201527f4f776e61626c653a2063616c6c6572206973206e6f7420746865206f776e657260448201526064016106f4565b610fae60006119f0565b565b600a546001600160a01b0316331461100a5760405162461bcd60e51b815260206004820181905260248201527f4f776e61626c653a2063616c6c6572206973206e6f7420746865206f776e657260448201526064016106f4565b600f80549115156101000261ff0019909216919091179055565b60606001805461071f9061267a565b600061103e60085490565b600f5490915060ff16156110945760405162461bcd60e51b815260206004820152601160248201527f4d696e74696e672069732070617573656400000000000000000000000000000060448201526064016106f4565b6000821161110a5760405162461bcd60e51b815260206004820152602260248201527f4d696e7420616d6f756e74206d7573742062652067726561746572207468616e60448201527f203000000000000000000000000000000000000000000000000000000000000060648201526084016106f4565b600e5461111783836126fc565b11156111655760405162461bcd60e51b815260206004820152601e60248201527f4d696e7420616d6f756e742065786365656473206d617820737570706c79000060448201526064016106f4565b600a546001600160a01b031633146111d45781600d546111859190612714565b3410156111d45760405162461bcd60e51b815260206004820152601a60248201527f4d696e7420616d6f756e74206c657373207468616e20636f737400000000000060448201526064016106f4565b60015b8281116109f2576111f1336111ec83856126fc565b611a4f565b806111fb816126e1565b9150506111d7565b610e21338383611a69565b6112183383611714565b61128a5760405162461bcd60e51b815260206004820152603160248201527f4552433732313a207472616e736665722063616c6c6572206973206e6f74206f60448201527f776e6572206e6f7220617070726f76656400000000000000000000000000000060648201526084016106f4565b61129684848484611b38565b50505050565b600c80546108449061267a565b6000818152600260205260409020546060906001600160a01b03166113365760405162461bcd60e51b815260206004820152602f60248201527f4552433732314d657461646174613a2055524920717565727920666f72206e6f60448201527f6e6578697374656e7420746f6b656e000000000000000000000000000000000060648201526084016106f4565b600f54610100900460ff166113d757601080546113529061267a565b80601f016020809104026020016040519081016040528092919081815260200182805461137e9061267a565b80156113cb5780601f106113a0576101008083540402835291602001916113cb565b820191906000526020600020905b8154815290600101906020018083116113ae57829003601f168201915b50505050509050919050565b60006113e1611bb6565b90506000815111611401576040518060200160405280600081525061142f565b8061140b84611bc5565b600c60405160200161141f93929190612733565b6040516020818303038152906040525b9392505050565b600a546001600160a01b031633146114905760405162461bcd60e51b815260206004820181905260248201527f4f776e61626c653a2063616c6c6572206973206e6f7420746865206f776e657260448201526064016106f4565b8051610e2190600c906020840190612270565b600a546001600160a01b031633146114fd5760405162461bcd60e51b815260206004820181905260248201527f4f776e61626c653a2063616c6c6572206973206e6f7420746865206f776e657260448201526064016106f4565b8051610e21906010906020840190612270565b600a546001600160a01b0316331461156a5760405162461bcd60e51b815260206004820181905260248201527f4f776e61626c653a2063616c6c6572206973206e6f7420746865206f776e657260448201526064016106f4565b6001600160a01b0381166115e65760405162461bcd60e51b815260206004820152602660248201527f4f776e61626c653a206e6577206f776e657220697320746865207a65726f206160448201527f646472657373000000000000000000000000000000000000000000000000000060648201526084016106f4565b610bf1816119f0565b6001600160a01b03163b151590565b60006001600160e01b031982167f80ac58cd00000000000000000000000000000000000000000000000000000000148061166157506001600160e01b031982167f5b5e139f00000000000000000000000000000000000000000000000000000000145b8061069857507f01ffc9a7000000000000000000000000000000000000000000000000000000006001600160e01b0319831614610698565b6000818152600460205260409020805473ffffffffffffffffffffffffffffffffffffffff19166001600160a01b03841690811790915581906116db82610e25565b6001600160a01b03167f8c5be1e5ebec7d5bd14f71427d1e84f3dd0314c0f7b2291e5b200ac8c7c3b92560405160405180910390a45050565b6000818152600260205260408120546001600160a01b031661178d5760405162461bcd60e51b815260206004820152602c60248201527f4552433732313a206f70657261746f7220717565727920666f72206e6f6e657860448201526b34b9ba32b73a103a37b5b2b760a11b60648201526084016106f4565b600061179883610e25565b9050806001600160a01b0316846001600160a01b031614806117d35750836001600160a01b03166117c8846107a2565b6001600160a01b0316145b8061180357506001600160a01b0380821660009081526005602090815260408083209388168352929052205460ff165b949350505050565b826001600160a01b031661181e82610e25565b6001600160a01b03161461189a5760405162461bcd60e51b815260206004820152602560248201527f4552433732313a207472616e736665722066726f6d20696e636f72726563742060448201527f6f776e657200000000000000000000000000000000000000000000000000000060648201526084016106f4565b6001600160a01b0382166119155760405162461bcd60e51b8152602060048201526024808201527f4552433732313a207472616e7366657220746f20746865207a65726f2061646460448201527f726573730000000000000000000000000000000000000000000000000000000060648201526084016106f4565b611920838383611cf7565b61192b600082611699565b6001600160a01b03831660009081526003602052604081208054600192906119549084906127f7565b90915550506001600160a01b03821660009081526003602052604081208054600192906119829084906126fc565b9091555050600081815260026020526040808220805473ffffffffffffffffffffffffffffffffffffffff19166001600160a01b0386811691821790925591518493918716917fddf252ad1be2c89b69c2b068fc378daa952ba7f163c4a11628f55a4df523b3ef91a4505050565b600a80546001600160a01b0383811673ffffffffffffffffffffffffffffffffffffffff19831681179093556040519116919082907f8be0079c531659141344cd1fd0a4f28419497f9722a3daafe3b4186f6b6457e090600090a35050565b610e21828260405180602001604052806000815250611daf565b816001600160a01b0316836001600160a01b03161415611acb5760405162461bcd60e51b815260206004820152601960248201527f4552433732313a20617070726f766520746f2063616c6c65720000000000000060448201526064016106f4565b6001600160a01b03838116600081815260056020908152604080832094871680845294825291829020805460ff191686151590811790915591519182527f17307eab39ab6107e8899845ad3d59bd9653f200f220920489ca2b5937696c31910160405180910390a3505050565b611b4384848461180b565b611b4f84848484611e2d565b6112965760405162461bcd60e51b815260206004820152603260248201527f4552433732313a207472616e7366657220746f206e6f6e20455243373231526560448201527131b2b4bb32b91034b6b83632b6b2b73a32b960711b60648201526084016106f4565b6060600b805461071f9061267a565b606081611c0557505060408051808201909152600181527f3000000000000000000000000000000000000000000000000000000000000000602082015290565b8160005b8115611c2f5780611c19816126e1565b9150611c289050600a83612824565b9150611c09565b60008167ffffffffffffffff811115611c4a57611c4a6124cc565b6040519080825280601f01601f191660200182016040528015611c74576020820181803683370190505b5090505b841561180357611c896001836127f7565b9150611c96600a86612838565b611ca19060306126fc565b60f81b818381518110611cb657611cb66126b5565b60200101907effffffffffffffffffffffffffffffffffffffffffffffffffffffffffffff1916908160001a905350611cf0600a86612824565b9450611c78565b6001600160a01b038316611d5257611d4d81600880546000838152600960205260408120829055600182018355919091527ff3f7a9fe364faab93b216da50a3214154f22a0a2b415b23a84c8169e8b636ee30155565b611d75565b816001600160a01b0316836001600160a01b031614611d7557611d758382611f85565b6001600160a01b038216611d8c576109f281612022565b826001600160a01b0316826001600160a01b0316146109f2576109f282826120d1565b611db98383612115565b611dc66000848484611e2d565b6109f25760405162461bcd60e51b815260206004820152603260248201527f4552433732313a207472616e7366657220746f206e6f6e20455243373231526560448201527131b2b4bb32b91034b6b83632b6b2b73a32b960711b60648201526084016106f4565b60006001600160a01b0384163b15611f7a57604051630a85bd0160e11b81526001600160a01b0385169063150b7a0290611e7190339089908890889060040161284c565b602060405180830381600087803b158015611e8b57600080fd5b505af1925050508015611ebb575060408051601f3d908101601f19168201909252611eb891810190612888565b60015b611f60573d808015611ee9576040519150601f19603f3d011682016040523d82523d6000602084013e611eee565b606091505b508051611f585760405162461bcd60e51b815260206004820152603260248201527f4552433732313a207472616e7366657220746f206e6f6e20455243373231526560448201527131b2b4bb32b91034b6b83632b6b2b73a32b960711b60648201526084016106f4565b805181602001fd5b6001600160e01b031916630a85bd0160e11b149050611803565b506001949350505050565b60006001611f9284610eb0565b611f9c91906127f7565b600083815260076020526040902054909150808214611fef576001600160a01b03841660009081526006602090815260408083208584528252808320548484528184208190558352600790915290208190555b5060009182526007602090815260408084208490556001600160a01b039094168352600681528383209183525290812055565b600854600090612034906001906127f7565b6000838152600960205260408120546008805493945090928490811061205c5761205c6126b5565b90600052602060002001549050806008838154811061207d5761207d6126b5565b60009182526020808320909101929092558281526009909152604080822084905585825281205560088054806120b5576120b56128a5565b6001900381819060005260206000200160009055905550505050565b60006120dc83610eb0565b6001600160a01b039093166000908152600660209081526040808320868452825280832085905593825260079052919091209190915550565b6001600160a01b03821661216b5760405162461bcd60e51b815260206004820181905260248201527f4552433732313a206d696e7420746f20746865207a65726f206164647265737360448201526064016106f4565b6000818152600260205260409020546001600160a01b0316156121d05760405162461bcd60e51b815260206004820152601c60248201527f4552433732313a20746f6b656e20616c7265616479206d696e7465640000000060448201526064016106f4565b6121dc60008383611cf7565b6001600160a01b03821660009081526003602052604081208054600192906122059084906126fc565b9091555050600081815260026020526040808220805473ffffffffffffffffffffffffffffffffffffffff19166001600160a01b03861690811790915590518392907fddf252ad1be2c89b69c2b068fc378daa952ba7f163c4a11628f55a4df523b3ef908290a45050565b82805461227c9061267a565b90600052602060002090601f01602090048101928261229e57600085556122e4565b82601f106122b757805160ff19168380011785556122e4565b828001600101855582156122e4579182015b828111156122e45782518255916020019190600101906122c9565b506122f09291506122f4565b5090565b5b808211156122f057600081556001016122f5565b6001600160e01b031981168114610bf157600080fd5b60006020828403121561233157600080fd5b813561142f81612309565b8035801515811461234c57600080fd5b919050565b60006020828403121561236357600080fd5b61142f8261233c565b60005b8381101561238757818101518382015260200161236f565b838111156112965750506000910152565b600081518084526123b081602086016020860161236c565b601f01601f19169290920160200192915050565b60208152600061142f6020830184612398565b6000602082840312156123e957600080fd5b5035919050565b80356001600160a01b038116811461234c57600080fd5b6000806040838503121561241a57600080fd5b612423836123f0565b946020939093013593505050565b60008060006060848603121561244657600080fd5b61244f846123f0565b925061245d602085016123f0565b9150604084013590509250925092565b60006020828403121561247f57600080fd5b61142f826123f0565b6020808252825182820181905260009190848201906040850190845b818110156124c0578351835292840192918401916001016124a4565b50909695505050505050565b634e487b7160e01b600052604160045260246000fd5b600067ffffffffffffffff808411156124fd576124fd6124cc565b604051601f8501601f19908116603f01168101908282118183101715612525576125256124cc565b8160405280935085815286868601111561253e57600080fd5b858560208301376000602087830101525050509392505050565b60006020828403121561256a57600080fd5b813567ffffffffffffffff81111561258157600080fd5b8201601f8101841361259257600080fd5b611803848235602084016124e2565b600080604083850312156125b457600080fd5b6125bd836123f0565b91506125cb6020840161233c565b90509250929050565b600080600080608085870312156125ea57600080fd5b6125f3856123f0565b9350612601602086016123f0565b925060408501359150606085013567ffffffffffffffff81111561262457600080fd5b8501601f8101871361263557600080fd5b612644878235602084016124e2565b91505092959194509250565b6000806040838503121561266357600080fd5b61266c836123f0565b91506125cb602084016123f0565b600181811c9082168061268e57607f821691505b602082108114156126af57634e487b7160e01b600052602260045260246000fd5b50919050565b634e487b7160e01b600052603260045260246000fd5b634e487b7160e01b600052601160045260246000fd5b60006000198214156126f5576126f56126cb565b5060010190565b6000821982111561270f5761270f6126cb565b500190565b600081600019048311821515161561272e5761272e6126cb565b500290565b6000845160206127468285838a0161236c565b8551918401916127598184848a0161236c565b8554920191600090600181811c908083168061277657607f831692505b85831081141561279457634e487b7160e01b85526022600452602485fd5b8080156127a857600181146127b9576127e6565b60ff198516885283880195506127e6565b60008b81526020902060005b858110156127de5781548a8201529084019088016127c5565b505083880195505b50939b9a5050505050505050505050565b600082821015612809576128096126cb565b500390565b634e487b7160e01b600052601260045260246000fd5b6000826128335761283361280e565b500490565b6000826128475761284761280e565b500690565b60006001600160a01b0380871683528086166020840152508360408301526080606083015261287e6080830184612398565b9695505050505050565b60006020828403121561289a57600080fd5b815161142f81612309565b634e487b7160e01b600052603160045260246000fdfea2646970667358221220c73a6329688d178ea239ae457d5627cdcb5d8746e3328f2f3d4edd7d924bbcd264736f6c634300080900334552433732313a207472616e7366657220746f206e6f6e2045524337323152654f776e61626c653a2063616c6c6572206973206e6f7420746865206f776e6572",
  "linkReferences": {},
  "deployedLinkReferences": {}
}